{
  "abi": [
    {
      "inputs": [
        {
          "internalType": "bytes",
          "name": "data",
          "type": "bytes"
        },
        {
          "internalType": "uint256",
          "name": "start",
          "type": "uint256"
        },
        {
          "internalType": "uint256",
          "name": "end",
          "type": "uint256"
        }
      ],
      "name": "Slice_OutOfBounds",
      "type": "error"
    },
    {
      "anonymous": false,
      "inputs": [
        {
          "indexed": true,
          "internalType": "ResourceId",
          "name": "tableId",
          "type": "bytes32"
        },
        {
          "indexed": false,
          "internalType": "bytes32[]",
          "name": "keyTuple",
          "type": "bytes32[]"
        }
      ],
      "name": "Store_DeleteRecord",
      "type": "event"
    },
    {
      "anonymous": false,
      "inputs": [
        {
          "indexed": true,
          "internalType": "ResourceId",
          "name": "tableId",
          "type": "bytes32"
        },
        {
          "indexed": false,
          "internalType": "bytes32[]",
          "name": "keyTuple",
          "type": "bytes32[]"
        },
        {
          "indexed": false,
          "internalType": "uint48",
          "name": "start",
          "type": "uint48"
        },
        {
          "indexed": false,
          "internalType": "bytes",
          "name": "data",
          "type": "bytes"
        }
      ],
      "name": "Store_SpliceStaticData",
      "type": "event"
    },
    {
      "inputs": [],
      "name": "_msgSender",
      "outputs": [
        {
          "internalType": "address",
          "name": "sender",
          "type": "address"
        }
      ],
      "stateMutability": "view",
      "type": "function"
    },
    {
      "inputs": [],
      "name": "_msgValue",
      "outputs": [
        {
          "internalType": "uint256",
          "name": "value",
          "type": "uint256"
        }
      ],
      "stateMutability": "pure",
      "type": "function"
    },
    {
      "inputs": [],
      "name": "_world",
      "outputs": [
        {
          "internalType": "address",
          "name": "",
          "type": "address"
        }
      ],
      "stateMutability": "view",
      "type": "function"
    },
    {
      "inputs": [
        {
          "internalType": "uint32",
          "name": "x",
          "type": "uint32"
        },
        {
          "internalType": "uint32",
          "name": "y",
          "type": "uint32"
        }
      ],
      "name": "collect",
      "outputs": [],
      "stateMutability": "nonpayable",
      "type": "function"
    },
    {
      "inputs": [
        {
          "internalType": "bytes4",
          "name": "interfaceId",
          "type": "bytes4"
        }
      ],
      "name": "supportsInterface",
      "outputs": [
        {
          "internalType": "bool",
          "name": "",
          "type": "bool"
        }
      ],
      "stateMutability": "pure",
      "type": "function"
    }
  ],
  "bytecode": {
    "object": "0x608060405234801561001057600080fd5b506123b5806100206000396000f3fe608060405234801561001057600080fd5b50600436106100675760003560e01c806345ec93541161005057806345ec9354146100b4578063b7253fed146100c7578063e1af802c146100dc57600080fd5b806301ffc9a71461006c578063119df25f14610094575b600080fd5b61007f61007a366004611e3e565b6100e4565b60405190151581526020015b60405180910390f35b61009c61017d565b6040516001600160a01b03909116815260200161008b565b604051601f19360135815260200161008b565b6100da6100d5366004611e94565b61018c565b005b61009c6103bb565b60007fffffffff0000000000000000000000000000000000000000000000000000000082167fb421288000000000000000000000000000000000000000000000000000000000148061017757507fffffffff0000000000000000000000000000000000000000000000000000000082167f01ffc9a700000000000000000000000000000000000000000000000000000000145b92915050565b60006101876103c5565b905090565b600061019661017d565b905060006101a3826103f7565b9050806000015163ffffffff168463ffffffff161415806101d45750806020015163ffffffff168363ffffffff1614155b15610266576040517f08c379a000000000000000000000000000000000000000000000000000000000815260206004820152602a60248201527f63616e206f6e6c79207069636b2075702063616e64792061742063757272656e60448201527f7420706f736974696f6e0000000000000000000000000000000000000000000060648201526084015b60405180910390fd5b610270848461053f565b6102d6576040517f08c379a000000000000000000000000000000000000000000000000000000000815260206004820152601860248201527f6e6f2063616e647920746f20636f6c6c65637420686572650000000000000000604482015260640161025d565b6102e0848461065b565b60006102eb8361073e565b9050610301836102fc836001611edd565b610827565b8060000361031957610314836004610925565b610336565b6103368361032685610a44565b610331906001611ef0565b610925565b6000610343610100610b30565b905060005b602081106103595750505050505050565b6000610366601084611f2a565b90506000610375601085611f4d565b9050610381828261053f565b1561039857610391600184611edd565b92506103ab565b6103a482826001610b75565b50506103b2565b5050610348565b50505050505050565b6000610187610ca3565b7fffffffffffffffffffffffffffffffffffffffffffffffffffffffffffffffcc36013560601c806103f45750335b90565b604080518082018252600080825260208201819052825160018082528185019094529192909190816020016020820280368337019050509050826001600160a01b031660001b8160008151811061045057610450611f86565b60209081029190910181019190915260408051613a3160f11b818401527f67726173736c616e64000000000000000000000000000000000000000000000060228201527f506f736974696f6e0000000000000000000000000000000000000000000000006030820152815180820390930183528101905260009081908190610501906104db90611f9c565b857e08020004040000000000000000000000000000000000000000000000000000610ce2565b6040805180820190915260008082526020808301918252850151602486015160e090811c909252901c815292955090935091505b9695505050505050565b604080516002808252606082018352600092839291906020830190803683370190505090508363ffffffff1660001b8160008151811061058157610581611f86565b6020026020010181815250508263ffffffff1660001b816001815181106105aa576105aa611f86565b60209081029190910181019190915260408051613a3160f11b818401526918d85b991e5ddbdc9b1960b21b60228201527f43616e6479506f736974696f6e00000000000000000000000000000000000000603082015281518082039093018352810190526000906106469061061e90611f9c565b8360007e01010001000000000000000000000000000000000000000000000000000000610db2565b90506106528160f81c90565b95945050505050565b6040805160028082526060820183526000926020830190803683370190505090508263ffffffff1660001b8160008151811061069957610699611f86565b6020026020010181815250508163ffffffff1660001b816001815181106106c2576106c2611f86565b60209081029190910181019190915260408051613a3160f11b818401526918d85b991e5ddbdc9b1960b21b60228201527f43616e6479506f736974696f6e00000000000000000000000000000000000000603082015281518082039093018352810190526107399061073390611f9c565b82610e6f565b505050565b60408051600180825281830190925260009182919060208083019080368337019050509050826001600160a01b031660001b8160008151811061078357610783611f86565b60209081029190910181019190915260408051613a3160f11b818401526918d85b991e5ddbdc9b1960b21b60228201527f43616e647942616c616e636500000000000000000000000000000000000000006030820152815180820390930183528101905260009061081f906107f790611f9c565b8360007e20010020000000000000000000000000000000000000000000000000000000610db2565b949350505050565b60408051600180825281830190925260009160208083019080368337019050509050826001600160a01b031660001b8160008151811061086957610869611f86565b60209081029190910181019190915260408051613a3160f11b818401526918d85b991e5ddbdc9b1960b21b60228201527f43616e647942616c616e6365000000000000000000000000000000000000000060308201528151808203909301835281019052610739906108da90611f9c565b826000856040516020016108f091815260200190565b60408051601f198184030181529190527e20010020000000000000000000000000000000000000000000000000000000610f0a565b60408051600180825281830190925260009160208083019080368337019050509050826001600160a01b031660001b8160008151811061096757610967611f86565b60209081029190910181019190915260408051613a3160f11b818401526918d85b991e5ddbdc9b1960b21b60228201527f4865616c7468000000000000000000000000000000000000000000000000000060308201528151808203909301835281019052610739906109d890611f9c565b6040517fffffffff0000000000000000000000000000000000000000000000000000000060e086901b166020820152839060009060240160408051601f198184030181529190527e04010004000000000000000000000000000000000000000000000000000000610f0a565b60408051600180825281830190925260009182919060208083019080368337019050509050826001600160a01b031660001b81600081518110610a8957610a89611f86565b60209081029190910181019190915260408051613a3160f11b818401526918d85b991e5ddbdc9b1960b21b60228201527f4865616c7468000000000000000000000000000000000000000000000000000060308201528151808203909301835281019052600090610b2590610afd90611f9c565b8360007e04010004000000000000000000000000000000000000000000000000000000610db2565b60e01c949350505050565b600081610b3e600143611fc3565b405a6040805160208101939093528201526060016040516020818303038152906040528051906020012060001c6101779190611fd6565b6040805160028082526060820183526000926020830190803683370190505090508363ffffffff1660001b81600081518110610bb357610bb3611f86565b6020026020010181815250508263ffffffff1660001b81600181518110610bdc57610bdc611f86565b60209081029190910181019190915260408051613a3160f11b818401526918d85b991e5ddbdc9b1960b21b60228201527f43616e6479506f736974696f6e0000000000000000000000000000000000000060308201528151808203909301835281019052610c9d90610c4d90611f9c565b82600085604051602001610c6891151560f81b815260010190565b60408051601f198184030181529190527e01010001000000000000000000000000000000000000000000000000000000610f0a565b50505050565b7f629a4c26e296b22a8e0856e9f6ecb2d1008d7e00081111962cd175fa7488e175546000906001600160a01b031680610cdd573391505090565b919050565b6060600060606000610cf2610ca3565b9050306001600160a01b03821603610d1b57610d0f878787610fc0565b93509350935050610da9565b6040517f419b58fd0000000000000000000000000000000000000000000000000000000081526001600160a01b0382169063419b58fd90610d64908a908a908a90600401612025565b600060405180830381865afa158015610d81573d6000803e3d6000fd5b505050506040513d6000823e601f3d908101601f19168201604052610d0f91908101906120f0565b93509350939050565b600080610dbd610ca3565b9050306001600160a01b03821603610de357610ddb868686866110c8565b91505061081f565b6040517f8c364d590000000000000000000000000000000000000000000000000000000081526001600160a01b03821690638c364d5990610e2e90899089908990899060040161215d565b602060405180830381865afa158015610e4b573d6000803e3d6000fd5b505050506040513d601f19601f82011682018060405250810190610ddb919061218c565b6000610e79610ca3565b9050306001600160a01b03821603610e955761073983836110f5565b6040517f505a181d0000000000000000000000000000000000000000000000000000000081526001600160a01b0382169063505a181d90610edc90869086906004016121a5565b600060405180830381600087803b158015610ef657600080fd5b505af11580156103b2573d6000803e3d6000fd5b6000610f14610ca3565b9050306001600160a01b03821603610f3857610f33868686868661110c565b610fb8565b6040517f390baae00000000000000000000000000000000000000000000000000000000081526001600160a01b0382169063390baae090610f8590899089908990899089906004016121ea565b600060405180830381600087803b158015610f9f57600080fd5b505af1158015610fb3573d6000803e3d6000fd5b505050505b505050505050565b6060600060606000610fd185611128565b9050610fde87878361114b565b93506000610feb8661118f565b905080156110bd57610ffd88886111cc565b935066ffffffffffffff841667ffffffffffffffff81111561102157611021611f70565b6040519080825280601f01601f19166020018201604052801561104b576020820181803683370190505b5092506020830160005b828160ff1610156110ba57600061106d8b8b846111df565b9050600061108a888460ff166028026038011c64ffffffffff1690565b9050611099828260008761125f565b6110a38185611edd565b9350505080806110b290612231565b915050611055565b50505b505093509350939050565b60006106526110d78686611317565b60ff858116601b0360080285901c166110f0858761136d565b6113b0565b611108828261110385611401565b61152f565b5050565b611121858561111b848761136d565b856117ef565b5050505050565b6000600861113860026020611fc3565b6111429190612250565b9190911c919050565b60608160000361116a5750604080516020810190915260008152611188565b60006111768585611317565b905061118481846000611a48565b9150505b9392505050565b600060086001806111a260026020611fc3565b6111ac9190611fc3565b6111b69190611fc3565b6111c09190612250565b8260ff911c1692915050565b60006111886111db8484611a6b565b5490565b600083836040516020016111f4929190612267565b604051602081830303815290604052805190602001208260f81b7effffffffffffffffffffffffffffffffffffffffffffffffffffffffffffff19167f3b4102da22e32d82fc925482184f16c09fd4281692720b87d124aef6da48a0f1181860001c90509392505050565b81156112d157602082106112895760208204840193506020828161128557611285611f14565b0691505b81156112d15760208290036000600019600883021c1990508554600885021b8119845116828216178452508185116112c2575050610c9d565b50600194909401939283900392015b5b602083106112f35783548152600190930192601f19909201916020016112d2565b8215610c9d576000600019600885021c198251865482169119161782525050505050565b6000828260405160200161132c929190612267565b60408051601f1981840301815291905280516020909101207f86425bff6b57326c7859e89024fe4f238ca327a1ae4a230180dd2f0e88aaa7d9189392505050565b600080805b8360ff168110156113a85761139460ff601b83900360080287901c1683611edd565b9150806113a0816122a2565b915050611372565b509392505050565b6000602082106113d6576020820484019350602082816113d2576113d2611f14565b0691505b508254600882021b6020829003808411156113a8576001850154600882021c82179150509392505050565b60408051613a3160f11b60208201527f73746f726500000000000000000000000000000000000000000000000000000060228201527f5461626c6573000000000000000000000000000000000000000000000000000060308201526000910160405160208183030381529060405261147890611f9c565b82036114a457507e60030220202000000000000000000000000000000000000000000000000000919050565b60408051613a3160f11b60208201527f73746f726500000000000000000000000000000000000000000000000000000060228201527f5461626c65730000000000000000000000000000000000000000000000000000603082015261017791611526910160405160208183030381529060405261152090611f9c565b84611ac1565b602060006113b0565b827f0e1f72f429eb97e64878619984a91e687ae91610348b9ff4216782cc96e49d078360405161155f91906122bc565b60405180910390a2613a3160f11b837fffff000000000000000000000000000000000000000000000000000000000000161461159a57505050565b60006115a584611add565b905060005b81518110156116825760008282815181106115c7576115c7611f86565b602002602001015190506115f36040826affffffffffffffffffffff1916611bbd90919063ffffffff16565b1561166f576040517f9faeaf45000000000000000000000000000000000000000000000000000000008152606082901c90639faeaf459061163c90899089908990600401612025565b600060405180830381600087803b15801561165657600080fd5b505af115801561166a573d6000803e3d6000fd5b505050505b508061167a816122a2565b9150506115aa565b50600061168f8585611317565b90506116e88160006116a086611128565b67ffffffffffffffff8111156116b8576116b8611f70565b6040519080825280601f01601f1916602001820160405280156116e2576020820181803683370190505b50611bdb565b60006116f38461118f565b11156117145760006117058686611a6b565b9050611712816020611beb565b505b60005b8251811015610fb857600083828151811061173457611734611f86565b602002602001015190506117606080826affffffffffffffffffffff1916611bbd90919063ffffffff16565b156117dc576040517f83b5c95b000000000000000000000000000000000000000000000000000000008152606082901c906383b5c95b906117a9908a908a908a90600401612025565b600060405180830381600087803b1580156117c357600080fd5b505af11580156117d7573d6000803e3d6000fd5b505050505b50806117e7816122a2565b915050611717565b60006117fb8585611317565b9050847f8c0b5119d4cec7b284c6b1b39252a03d1e2f2d7451a5895562524c113bb952be858585604051611831939291906122cf565b60405180910390a2613a3160f11b857fffff000000000000000000000000000000000000000000000000000000000000161461186d5750610c9d565b600061187886611add565b905060005b815181101561195757600082828151811061189a5761189a611f86565b602002602001015190506118c66004826affffffffffffffffffffff1916611bbd90919063ffffffff16565b15611944576040517f964f667d000000000000000000000000000000000000000000000000000000008152606082901c9063964f667d90611911908b908b908b908b90600401612302565b600060405180830381600087803b15801561192b57600080fd5b505af115801561193f573d6000803e3d6000fd5b505050505b508061194f816122a2565b91505061187d565b5061196b828565ffffffffffff1685611bdb565b60005b81518110156103b257600082828151811061198b5761198b611f86565b602002602001015190506119b76008826affffffffffffffffffffff1916611bbd90919063ffffffff16565b15611a35576040517fa8ba8721000000000000000000000000000000000000000000000000000000008152606082901c9063a8ba872190611a02908b908b908b908b90600401612302565b600060405180830381600087803b158015611a1c57600080fd5b505af1158015611a30573d6000803e3d6000fd5b505050505b5080611a40816122a2565b91505061196e565b60405160208101601f19603f85840101166040528382526113a88585858461125f565b60008282604051602001611a80929190612267565b60408051601f1981840301815291905280516020909101207f14e2fcc58e58e68ec7edc30c8d50dccc3ce2714a623ec81f46b6a63922d76569189392505050565b604080516020810184905290810182905260009060600161132c565b60408051600180825281830190925260609160009190602080830190803683370190505090508281600081518110611b1757611b17611f86565b60209081029190910181019190915260408051613a3160f11b818401527f73746f726500000000000000000000000000000000000000000000000000000060228201527f53746f7265486f6f6b730000000000000000000000000000000000000000000060308201528151808203909301835281019052600090611ba690611b9e90611f9c565b836000611c28565b905061081f611bb88260008451611c62565b611cf2565b60008160ff1682611bce8560581c90565b1660ff1614905092915050565b6107398383602084018451611d03565b60006020611bfa83601f611edd565b611c049190612346565b611c0e9084611edd565b90505b808310156107395760008355600183019250611c11565b606061081f611c388585856111df565b611c5b84611c4688886111cc565b9060ff166028026038011c64ffffffffff1690565b6000611a48565b6000818311158015611c75575083518211155b611cb1578383836040517f23230fa300000000000000000000000000000000000000000000000000000000815260040161025d9392919061235a565b60208401611cbf8482611edd565b90506000611ccd8585611fc3565b6fffffffffffffffffffffffffffffffff1660809290921b9190911795945050505050565b606060006111888360156000611dc3565b8215611d7d5760208310611d2d57602083048401935060208381611d2957611d29611f14565b0692505b8215611d7d5760208390036000600019600884021c1990506008850281811c91508451811c9050811987541682821617875550818311611d6e575050610c9d565b50600194909401939182019190035b5b60208110611d9f5781518455600190930192602090910190601f1901611d7e565b8015610c9d576000600019600883021c198554845182169119161785555050505050565b60606000611dd18560801c90565b90506fffffffffffffffffffffffffffffffff85166000858281611df757611df7611f14565b04905060405193506020840160208202810160405281855260005b82811015611e32578451871c825293870193602090910190600101611e12565b50505050509392505050565b600060208284031215611e5057600080fd5b81357fffffffff000000000000000000000000000000000000000000000000000000008116811461118857600080fd5b803563ffffffff81168114610cdd57600080fd5b60008060408385031215611ea757600080fd5b611eb083611e80565b9150611ebe60208401611e80565b90509250929050565b634e487b7160e01b600052601160045260246000fd5b8082018082111561017757610177611ec7565b63ffffffff818116838216019080821115611f0d57611f0d611ec7565b5092915050565b634e487b7160e01b600052601260045260246000fd5b600063ffffffff80841680611f4157611f41611f14565b92169190910492915050565b600063ffffffff80841680611f6457611f64611f14565b92169190910692915050565b634e487b7160e01b600052604160045260246000fd5b634e487b7160e01b600052603260045260246000fd5b80516020808301519190811015611fbd576000198160200360031b1b821691505b50919050565b8181038181111561017757610177611ec7565b600082611fe557611fe5611f14565b500690565b600081518084526020808501945080840160005b8381101561201a57815187529582019590820190600101611ffe565b509495945050505050565b83815260606020820152600061203e6060830185611fea565b9050826040830152949350505050565b60005b83811015612069578181015183820152602001612051565b50506000910152565b600082601f83011261208357600080fd5b815167ffffffffffffffff8082111561209e5761209e611f70565b604051601f8301601f19908116603f011681019082821181831017156120c6576120c6611f70565b816040528381528660208588010111156120df57600080fd5b61053584602083016020890161204e565b60008060006060848603121561210557600080fd5b835167ffffffffffffffff8082111561211d57600080fd5b61212987838801612072565b945060208601519350604086015191508082111561214657600080fd5b5061215386828701612072565b9150509250925092565b8481526080602082015260006121766080830186611fea565b60ff949094166040830152506060015292915050565b60006020828403121561219e57600080fd5b5051919050565b82815260406020820152600061081f6040830184611fea565b600081518084526121d681602086016020860161204e565b601f01601f19169290920160200192915050565b85815260a06020820152600061220360a0830187611fea565b60ff86166040840152828103606084015261221e81866121be565b9150508260808301529695505050505050565b600060ff821660ff810361224757612247611ec7565b60010192915050565b808202811582820484141761017757610177611ec7565b82815260006020808301845182860160005b8281101561229557815184529284019290840190600101612279565b5091979650505050505050565b600060001982036122b5576122b5611ec7565b5060010190565b6020815260006111886020830184611fea565b6060815260006122e26060830186611fea565b65ffffffffffff85166020840152828103604084015261053581856121be565b84815260806020820152600061231b6080830186611fea565b65ffffffffffff85166040840152828103606084015261233b81856121be565b979650505050505050565b60008261235557612355611f14565b500490565b60608152600061236d60608301866121be565b6020830194909452506040015291905056fea26469706673582212206e85939e0f7e79d58101a00af3855881330ed233cb70d8b34dfdf0605479618d64736f6c63430008150033",
    "linkReferences": {}
  },
  "methodIdentifiers": {
    "_msgSender()": "119df25f",
    "_msgValue()": "45ec9354",
    "_world()": "e1af802c",
    "collect(uint32,uint32)": "b7253fed",
    "supportsInterface(bytes4)": "01ffc9a7"
  },
  "id": 150
}