{
  "abi": [
    {
      "inputs": [
        {
          "internalType": "bytes",
          "name": "data",
          "type": "bytes"
        },
        {
          "internalType": "uint256",
          "name": "start",
          "type": "uint256"
        },
        {
          "internalType": "uint256",
          "name": "end",
          "type": "uint256"
        }
      ],
      "name": "Slice_OutOfBounds",
      "type": "error"
    },
    {
      "anonymous": false,
      "inputs": [
        {
          "indexed": true,
          "internalType": "ResourceId",
          "name": "tableId",
          "type": "bytes32"
        },
        {
          "indexed": false,
          "internalType": "bytes32[]",
          "name": "keyTuple",
          "type": "bytes32[]"
        },
        {
          "indexed": false,
          "internalType": "bytes",
          "name": "staticData",
          "type": "bytes"
        },
        {
          "indexed": false,
          "internalType": "PackedCounter",
          "name": "encodedLengths",
          "type": "bytes32"
        },
        {
          "indexed": false,
          "internalType": "bytes",
          "name": "dynamicData",
          "type": "bytes"
        }
      ],
      "name": "Store_SetRecord",
      "type": "event"
    },
    {
      "inputs": [],
      "name": "_msgSender",
      "outputs": [
        {
          "internalType": "address",
          "name": "sender",
          "type": "address"
        }
      ],
      "stateMutability": "view",
      "type": "function"
    },
    {
      "inputs": [],
      "name": "_msgValue",
      "outputs": [
        {
          "internalType": "uint256",
          "name": "value",
          "type": "uint256"
        }
      ],
      "stateMutability": "pure",
      "type": "function"
    },
    {
      "inputs": [],
      "name": "_world",
      "outputs": [
        {
          "internalType": "address",
          "name": "",
          "type": "address"
        }
      ],
      "stateMutability": "view",
      "type": "function"
    },
    {
      "inputs": [
        {
          "internalType": "uint32",
          "name": "x",
          "type": "uint32"
        },
        {
          "internalType": "uint32",
          "name": "y",
          "type": "uint32"
        }
      ],
      "name": "move",
      "outputs": [],
      "stateMutability": "nonpayable",
      "type": "function"
    },
    {
      "inputs": [
        {
          "internalType": "bytes4",
          "name": "interfaceId",
          "type": "bytes4"
        }
      ],
      "name": "supportsInterface",
      "outputs": [
        {
          "internalType": "bool",
          "name": "",
          "type": "bool"
        }
      ],
      "stateMutability": "pure",
      "type": "function"
    }
  ],
  "bytecode": {
    "object": "0x608060405234801561001057600080fd5b50611201806100206000396000f3fe608060405234801561001057600080fd5b50600436106100675760003560e01c806316254d8d1161005057806316254d8d146100c157806345ec9354146100d6578063e1af802c146100e957600080fd5b806301ffc9a71461006c578063119df25f14610094575b600080fd5b61007f61007a366004610e62565b6100f1565b60405190151581526020015b60405180910390f35b61009c61018a565b60405173ffffffffffffffffffffffffffffffffffffffff909116815260200161008b565b6100d46100cf366004610eb8565b610199565b005b604051601f19360135815260200161008b565b61009c6101af565b60007fffffffff0000000000000000000000000000000000000000000000000000000082167fb421288000000000000000000000000000000000000000000000000000000000148061018457507fffffffff0000000000000000000000000000000000000000000000000000000082167f01ffc9a700000000000000000000000000000000000000000000000000000000145b92915050565b60006101946101b9565b905090565b6101ab6101a461018a565b83836101eb565b5050565b6000610194610321565b7fffffffffffffffffffffffffffffffffffffffffffffffffffffffffffffffcc36013560601c806101e85750335b90565b6040805160e084811b7fffffffff000000000000000000000000000000000000000000000000000000009081166020808501919091529185901b1660248301528251600881840301815260016028840181815260688501909552909360009360609385939160480190803683370190505090508673ffffffffffffffffffffffffffffffffffffffff1660001b8160008151811061028b5761028b610eeb565b60209081029190910181019190915260408051613a3160f11b818401527f67726173736c616e64000000000000000000000000000000000000000000000060228201527f506f736974696f6e000000000000000000000000000000000000000000000000603082015281518082039093018352810190526103189061030f90610f1a565b8286868661036d565b50505050505050565b7f629a4c26e296b22a8e0856e9f6ecb2d1008d7e00081111962cd175fa7488e1755460009073ffffffffffffffffffffffffffffffffffffffff1680610368573391505090565b919050565b6000610377610321565b90503073ffffffffffffffffffffffffffffffffffffffff8216036103a8576103a3868686868661043d565b610435565b6040517f298314fb00000000000000000000000000000000000000000000000000000000815273ffffffffffffffffffffffffffffffffffffffff82169063298314fb906104029089908990899089908990600401610fc2565b600060405180830381600087803b15801561041c57600080fd5b505af1158015610430573d6000803e3d6000fd5b505050505b505050505050565b610453858585858561044e8b61045a565b610588565b5050505050565b60408051613a3160f11b60208201527f73746f726500000000000000000000000000000000000000000000000000000060228201527f5461626c657300000000000000000000000000000000000000000000000000006030820152600091016040516020818303038152906040526104d190610f1a565b82036104fd57507e60030220202000000000000000000000000000000000000000000000000000919050565b60408051613a3160f11b60208201527f73746f726500000000000000000000000000000000000000000000000000000060228201527f5461626c6573000000000000000000000000000000000000000000000000000060308201526101849161057f910160405160208183030381529060405261057990610f1a565b84610877565b602060006108d0565b857f8dbb3a9672eebfd3773e72dd9c102393436816d832c7ba9e1e1ac8fcadcac7a9868686866040516105be9493929190611013565b60405180910390a2613a3160f11b867fffff00000000000000000000000000000000000000000000000000000000000016036104355760006105ff87610922565b905060005b81518110156106e257600082828151811061062157610621610eeb565b6020026020010151905061064d6001826affffffffffffffffffffff1916610a0a90919063ffffffff16565b156106cf576040517f57066c9c000000000000000000000000000000000000000000000000000000008152606082901c906357066c9c9061069c908c908c908c908c908c908c9060040161105d565b600060405180830381600087803b1580156106b657600080fd5b505af11580156106ca573d6000803e3d6000fd5b505050505b50806106da816110e5565b915050610604565b5060006106ef8888610a28565b90506000602087019050610707826000838a51610a3d565b600061071285610afb565b11156107965760006107248a8a610b38565b878155905060208601915060008060005b61073e88610afb565b8160ff161015610791576107538d8d83610b8e565b925061076e8a8260ff166028026038011c64ffffffffff1690565b915061077d8360008785610a3d565b61078782866110ff565b9450600101610735565b505050505b60005b83518110156104305760008482815181106107b6576107b6610eeb565b602002602001015190506107e26002826affffffffffffffffffffff1916610a0a90919063ffffffff16565b15610864576040517f5b28cdaf000000000000000000000000000000000000000000000000000000008152606082901c90635b28cdaf90610831908e908e908e908e908e908e9060040161105d565b600060405180830381600087803b15801561084b57600080fd5b505af115801561085f573d6000803e3d6000fd5b505050505b508061086f816110e5565b915050610799565b60408051602081018490529081018290526000906060015b60408051601f1981840301815291905280516020909101207f86425bff6b57326c7859e89024fe4f238ca327a1ae4a230180dd2f0e88aaa7d9189392505050565b6000602082106108f6576020820484019350602082816108f2576108f2611112565b0691505b508254600882021b60208290038084111561091a576001850154600882021c821791505b509392505050565b6040805160018082528183019092526060916000919060208083019080368337019050509050828160008151811061095c5761095c610eeb565b60209081029190910181019190915260408051613a3160f11b818401527f73746f726500000000000000000000000000000000000000000000000000000060228201527f53746f7265486f6f6b7300000000000000000000000000000000000000000000603082015281518082039093018352810190526000906109eb906109e390610f1a565b836000610c0e565b9050610a026109fd8260008451610c48565b610ce1565b949350505050565b60008160ff1682610a1b8560581c90565b1660ff1614905092915050565b6000828260405160200161088f929190611141565b8215610ab75760208310610a6757602083048401935060208381610a6357610a63611112565b0692505b8215610ab75760208390036000600019600884021c1990506008850281811c91508451811c9050811987541682821617875550818311610aa8575050610af5565b50600194909401939182019190035b5b60208110610ad95781518455600190930192602090910190601f1901610ab8565b8015610af55783548251600019600884021c9182169119161784555b50505050565b60006008600180610b0e6002602061117c565b610b18919061117c565b610b22919061117c565b610b2c919061118f565b8260ff911c1692915050565b60008282604051602001610b4d929190611141565b60408051601f1981840301815291905280516020909101207f14e2fcc58e58e68ec7edc30c8d50dccc3ce2714a623ec81f46b6a63922d76569189392505050565b60008383604051602001610ba3929190611141565b604051602081830303815290604052805190602001208260f81b7effffffffffffffffffffffffffffffffffffffffffffffffffffffffffffff19167f3b4102da22e32d82fc925482184f16c09fd4281692720b87d124aef6da48a0f1181860001c90509392505050565b6060610a02610c1e858585610b8e565b610c4184610c2c8888610cf9565b9060ff166028026038011c64ffffffffff1690565b6000610d0c565b6000818311158015610c5b575083518211155b610ca0578383836040517f23230fa3000000000000000000000000000000000000000000000000000000008152600401610c97939291906111a6565b60405180910390fd5b60208401610cae84826110ff565b90506000610cbc858561117c565b6fffffffffffffffffffffffffffffffff1660809290921b9190911795945050505050565b60606000610cf28360156000610d2f565b9392505050565b6000610cf2610d088484610b38565b5490565b60405160208101601f19603f858401011660405283825261091a85858584610daa565b60606000610d3d8560801c90565b90506fffffffffffffffffffffffffffffffff85166000858281610d6357610d63611112565b04905060405193506020840160208202810160405281855260005b82811015610d9e578451871c825293870193602090910190600101610d7e565b50505050509392505050565b8115610e1c5760208210610dd457602082048401935060208281610dd057610dd0611112565b0691505b8115610e1c5760208290036000600019600883021c1990508554600885021b811984511682821617845250818511610e0d575050610af5565b50600194909401939283900392015b5b60208310610e3e5783548152600190930192601f1990920191602001610e1d565b8215610af5576000600019600885021c198251865482169119161782525050505050565b600060208284031215610e7457600080fd5b81357fffffffff0000000000000000000000000000000000000000000000000000000081168114610cf257600080fd5b803563ffffffff8116811461036857600080fd5b60008060408385031215610ecb57600080fd5b610ed483610ea4565b9150610ee260208401610ea4565b90509250929050565b7f4e487b7100000000000000000000000000000000000000000000000000000000600052603260045260246000fd5b80516020808301519190811015610f3b576000198160200360031b1b821691505b50919050565b600081518084526020808501945080840160005b83811015610f7157815187529582019590820190600101610f55565b509495945050505050565b6000815180845260005b81811015610fa257602081850181015186830182015201610f86565b506000602082860101526020601f19601f83011685010191505092915050565b85815260a060208201526000610fdb60a0830187610f41565b8281036040840152610fed8187610f7c565b905084606084015282810360808401526110078185610f7c565b98975050505050505050565b6080815260006110266080830187610f41565b82810360208401526110388187610f7c565b905084604084015282810360608401526110528185610f7c565b979650505050505050565b86815260c06020820152600061107660c0830188610f41565b82810360408401526110888188610f7c565b905085606084015282810360808401526110a28186610f7c565b9150508260a0830152979650505050505050565b7f4e487b7100000000000000000000000000000000000000000000000000000000600052601160045260246000fd5b600060001982036110f8576110f86110b6565b5060010190565b80820180821115610184576101846110b6565b7f4e487b7100000000000000000000000000000000000000000000000000000000600052601260045260246000fd5b82815260006020808301845182860160005b8281101561116f57815184529284019290840190600101611153565b5091979650505050505050565b81810381811115610184576101846110b6565b8082028115828204841417610184576101846110b6565b6060815260006111b96060830186610f7c565b6020830194909452506040015291905056fea26469706673582212206ad184ea8b1d58b027b0683ecfd3bcb1599d541505a0ccd45cc5e7acbb62ac1b64736f6c63430008150033",
    "linkReferences": {}
  },
  "methodIdentifiers": {
    "_msgSender()": "119df25f",
    "_msgValue()": "45ec9354",
    "_world()": "e1af802c",
    "move(uint32,uint32)": "16254d8d",
    "supportsInterface(bytes4)": "01ffc9a7"
  },
  "id": 137
}