{
  "abi": [
    {
      "inputs": [
        {
          "internalType": "bytes",
          "name": "data",
          "type": "bytes"
        },
        {
          "internalType": "uint256",
          "name": "start",
          "type": "uint256"
        },
        {
          "internalType": "uint256",
          "name": "end",
          "type": "uint256"
        }
      ],
      "name": "Slice_OutOfBounds",
      "type": "error"
    },
    {
      "anonymous": false,
      "inputs": [
        {
          "indexed": true,
          "internalType": "ResourceId",
          "name": "tableId",
          "type": "bytes32"
        },
        {
          "indexed": false,
          "internalType": "bytes32[]",
          "name": "keyTuple",
          "type": "bytes32[]"
        },
        {
          "indexed": false,
          "internalType": "bytes",
          "name": "staticData",
          "type": "bytes"
        },
        {
          "indexed": false,
          "internalType": "PackedCounter",
          "name": "encodedLengths",
          "type": "bytes32"
        },
        {
          "indexed": false,
          "internalType": "bytes",
          "name": "dynamicData",
          "type": "bytes"
        }
      ],
      "name": "Store_SetRecord",
      "type": "event"
    },
    {
      "anonymous": false,
      "inputs": [
        {
          "indexed": true,
          "internalType": "ResourceId",
          "name": "tableId",
          "type": "bytes32"
        },
        {
          "indexed": false,
          "internalType": "bytes32[]",
          "name": "keyTuple",
          "type": "bytes32[]"
        },
        {
          "indexed": false,
          "internalType": "uint48",
          "name": "start",
          "type": "uint48"
        },
        {
          "indexed": false,
          "internalType": "bytes",
          "name": "data",
          "type": "bytes"
        }
      ],
      "name": "Store_SpliceStaticData",
      "type": "event"
    },
    {
      "inputs": [],
      "name": "_msgSender",
      "outputs": [
        {
          "internalType": "address",
          "name": "sender",
          "type": "address"
        }
      ],
      "stateMutability": "view",
      "type": "function"
    },
    {
      "inputs": [],
      "name": "_msgValue",
      "outputs": [
        {
          "internalType": "uint256",
          "name": "value",
          "type": "uint256"
        }
      ],
      "stateMutability": "pure",
      "type": "function"
    },
    {
      "inputs": [],
      "name": "_world",
      "outputs": [
        {
          "internalType": "address",
          "name": "",
          "type": "address"
        }
      ],
      "stateMutability": "view",
      "type": "function"
    },
    {
      "inputs": [
        {
          "internalType": "uint32",
          "name": "x",
          "type": "uint32"
        },
        {
          "internalType": "uint32",
          "name": "y",
          "type": "uint32"
        }
      ],
      "name": "move",
      "outputs": [],
      "stateMutability": "nonpayable",
      "type": "function"
    },
    {
      "inputs": [
        {
          "internalType": "bytes4",
          "name": "interfaceId",
          "type": "bytes4"
        }
      ],
      "name": "supportsInterface",
      "outputs": [
        {
          "internalType": "bool",
          "name": "",
          "type": "bool"
        }
      ],
      "stateMutability": "pure",
      "type": "function"
    }
  ],
  "bytecode": {
    "object": "0x608060405234801561001057600080fd5b5061214e806100206000396000f3fe608060405234801561001057600080fd5b50600436106100675760003560e01c806316254d8d1161005057806316254d8d146100c157806345ec9354146100d6578063e1af802c146100e957600080fd5b806301ffc9a71461006c578063119df25f14610094575b600080fd5b61007f61007a366004611b76565b6100f1565b60405190151581526020015b60405180910390f35b61009c61018a565b60405173ffffffffffffffffffffffffffffffffffffffff909116815260200161008b565b6100d46100cf366004611bcc565b610199565b005b604051601f19360135815260200161008b565b61009c610372565b60007fffffffff0000000000000000000000000000000000000000000000000000000082167fb421288000000000000000000000000000000000000000000000000000000000148061018457507fffffffff0000000000000000000000000000000000000000000000000000000082167f01ffc9a700000000000000000000000000000000000000000000000000000000145b92915050565b600061019461037c565b905090565b60006101a361018a565b90506101ae816103ae565b61023f576040517f08c379a000000000000000000000000000000000000000000000000000000000815260206004820152602160248201527f63616e206f6e6c79206d6f7665206166746572206265696e6720737061776e6560448201527f640000000000000000000000000000000000000000000000000000000000000060648201526084015b60405180910390fd5b61024983836104b5565b156102b0576040517f08c379a000000000000000000000000000000000000000000000000000000000815260206004820152601860248201527f74686973207370616365206973206f62737472756374656400000000000000006044820152606401610236565b60006102bb8261059a565b905060016102d38260000151836020015187876106db565b63ffffffff161115610341576040517f08c379a000000000000000000000000000000000000000000000000000000000815260206004820181905260248201527f63616e206f6e6c79206d6f766520746f2061646a6163656e74207370616365736044820152606401610236565b61034c828585610751565b610360816000015182602001516000610873565b61036c84846001610873565b50505050565b600061019461099a565b7fffffffffffffffffffffffffffffffffffffffffffffffffffffffffffffffcc36013560601c806103ab5750335b90565b604080516001808252818301909252600091829190602080830190803683370190505090508273ffffffffffffffffffffffffffffffffffffffff1660001b8160008151811061040057610400611c15565b60209081029190910181019190915260408051613a3160f11b928101929092526819dc985cdcdb185b9960ba1b60228301527f537061776e65640000000000000000000000000000000000000000000000000060308301526000916104a191015b60405160208183030381529060405261047990611c2b565b8360007e010100010000000000000000000000000000000000000000000000000000006109e6565b90506104ad8160f81c90565b949350505050565b604080516002808252606082018352600092839291906020830190803683370190505090508363ffffffff1660001b816000815181106104f7576104f7611c15565b6020026020010181815250508263ffffffff1660001b8160018151811061052057610520611c15565b60209081029190910181019190915260408051613a3160f11b928101929092526819dc985cdcdb185b9960ba1b60228301527f4f62737472756374696f6e00000000000000000000000000000000000000000060308301526000916105859101610461565b90506105918160f81c90565b95945050505050565b6040805180820182526000808252602082018190528251600180825281850190945291929091908160200160208202803683370190505090508273ffffffffffffffffffffffffffffffffffffffff1660001b8160008151811061060057610600611c15565b60209081029190910181019190915260408051613a3160f11b818401526819dc985cdcdb185b9960ba1b60228201527f506f736974696f6e000000000000000000000000000000000000000000000000603082015281518082039093018352810190526000908190819061069d9061067790611c2b565b857e08020004040000000000000000000000000000000000000000000000000000610abd565b6040805180820190915260008082526020808301918252850151602486015160e090811c909252901c815292955090935091505b9695505050505050565b6000808363ffffffff168663ffffffff1611610700576106fb8685611c68565b61070a565b61070a8487611c68565b905060008363ffffffff168663ffffffff16116107305761072b8685611c68565b61073a565b61073a8487611c68565b90506107468183611c8c565b979650505050505050565b6040805160e084811b7fffffffff000000000000000000000000000000000000000000000000000000009081166020808501919091529185901b1660248301528251600881840301815260016028840181815260688501909552909360009360609385939160480190803683370190505090508673ffffffffffffffffffffffffffffffffffffffff1660001b816000815181106107f1576107f1611c15565b60209081029190910181019190915260408051613a3160f11b818401526819dc985cdcdb185b9960ba1b60228201527f506f736974696f6e0000000000000000000000000000000000000000000000006030820152815180820390930183528101905261086a9061086190611c2b565b82868686610ba7565b50505050505050565b6040805160028082526060820183526000926020830190803683370190505090508363ffffffff1660001b816000815181106108b1576108b1611c15565b6020026020010181815250508263ffffffff1660001b816001815181106108da576108da611c15565b60209081029190910181019190915260408051613a3160f11b818401526819dc985cdcdb185b9960ba1b60228201527f4f62737472756374696f6e0000000000000000000000000000000000000000006030820152815180820390930183528101905261036c9061094a90611c2b565b8260008560405160200161096591151560f81b815260010190565b60408051601f198184030181529190527e01010001000000000000000000000000000000000000000000000000000000610c77565b7f629a4c26e296b22a8e0856e9f6ecb2d1008d7e00081111962cd175fa7488e1755460009073ffffffffffffffffffffffffffffffffffffffff16806109e1573391505090565b919050565b6000806109f161099a565b90503073ffffffffffffffffffffffffffffffffffffffff821603610a2457610a1c86868686610d07565b9150506104ad565b6040517f8c364d5900000000000000000000000000000000000000000000000000000000815273ffffffffffffffffffffffffffffffffffffffff821690638c364d5990610a7c908990899089908990600401611ce4565b602060405180830381865afa158015610a99573d6000803e3d6000fd5b505050506040513d601f19601f82011682018060405250810190610a1c9190611d13565b6060600060606000610acd61099a565b90503073ffffffffffffffffffffffffffffffffffffffff821603610b0357610af7878787610d34565b93509350935050610b9e565b6040517f419b58fd00000000000000000000000000000000000000000000000000000000815273ffffffffffffffffffffffffffffffffffffffff82169063419b58fd90610b59908a908a908a90600401611d2c565b600060405180830381865afa158015610b76573d6000803e3d6000fd5b505050506040513d6000823e601f3d908101601f19168201604052610af79190810190611df7565b93509350939050565b6000610bb161099a565b90503073ffffffffffffffffffffffffffffffffffffffff821603610be257610bdd8686868686610e3c565b610c6f565b6040517f298314fb00000000000000000000000000000000000000000000000000000000815273ffffffffffffffffffffffffffffffffffffffff82169063298314fb90610c3c9089908990899089908990600401611e90565b600060405180830381600087803b158015610c5657600080fd5b505af1158015610c6a573d6000803e3d6000fd5b505050505b505050505050565b6000610c8161099a565b90503073ffffffffffffffffffffffffffffffffffffffff821603610cad57610bdd8686868686610e59565b6040517f390baae000000000000000000000000000000000000000000000000000000000815273ffffffffffffffffffffffffffffffffffffffff82169063390baae090610c3c9089908990899089908990600401611ee1565b6000610591610d168686610e6e565b60ff858116601b0360080285901c16610d2f8587610ec4565b610f07565b6060600060606000610d4585610f58565b9050610d52878783610f7b565b93506000610d5f86610fbf565b90508015610e3157610d718888610ffc565b935066ffffffffffffff841667ffffffffffffffff811115610d9557610d95611bff565b6040519080825280601f01601f191660200182016040528015610dbf576020820181803683370190505b5092506020830160005b828160ff161015610e2e576000610de18b8b8461100f565b90506000610dfe888460ff166028026038011c64ffffffffff1690565b9050610e0d828260008761108f565b610e178185611f28565b935050508080610e2690611f3b565b915050610dc9565b50505b505093509350939050565b610e528585858585610e4d8b611147565b611275565b5050505050565b610e528585610e688487610ec4565b85611564565b60008282604051602001610e83929190611f5a565b60408051601f1981840301815291905280516020909101207f86425bff6b57326c7859e89024fe4f238ca327a1ae4a230180dd2f0e88aaa7d9189392505050565b600080805b8360ff16811015610eff57610eeb60ff601b83900360080287901c1683611f28565b915080610ef781611f95565b915050610ec9565b509392505050565b600060208210610f2d57602082048401935060208281610f2957610f29611faf565b0691505b508254600882021b602082900380841115610eff576001850154600882021c82179150509392505050565b60006008610f6860026020611fc5565b610f729190611fd8565b9190911c919050565b606081600003610f9a5750604080516020810190915260008152610fb8565b6000610fa68585610e6e565b9050610fb4818460006117bd565b9150505b9392505050565b60006008600180610fd260026020611fc5565b610fdc9190611fc5565b610fe69190611fc5565b610ff09190611fd8565b8260ff911c1692915050565b6000610fb861100b84846117e0565b5490565b60008383604051602001611024929190611f5a565b604051602081830303815290604052805190602001208260f81b7effffffffffffffffffffffffffffffffffffffffffffffffffffffffffffff19167f3b4102da22e32d82fc925482184f16c09fd4281692720b87d124aef6da48a0f1181860001c90509392505050565b811561110157602082106110b9576020820484019350602082816110b5576110b5611faf565b0691505b81156111015760208290036000600019600883021c1990508554600885021b8119845116828216178452508185116110f257505061036c565b50600194909401939283900392015b5b602083106111235783548152600190930192601f1990920191602001611102565b821561036c576000600019600885021c198251865482169119161782525050505050565b60408051613a3160f11b60208201527f73746f726500000000000000000000000000000000000000000000000000000060228201527f5461626c657300000000000000000000000000000000000000000000000000006030820152600091016040516020818303038152906040526111be90611c2b565b82036111ea57507e60030220202000000000000000000000000000000000000000000000000000919050565b60408051613a3160f11b60208201527f73746f726500000000000000000000000000000000000000000000000000000060228201527f5461626c6573000000000000000000000000000000000000000000000000000060308201526101849161126c910160405160208183030381529060405261126690611c2b565b84611836565b60206000610f07565b857f8dbb3a9672eebfd3773e72dd9c102393436816d832c7ba9e1e1ac8fcadcac7a9868686866040516112ab9493929190611fef565b60405180910390a2613a3160f11b867fffff0000000000000000000000000000000000000000000000000000000000001603610c6f5760006112ec87611852565b905060005b81518110156113cf57600082828151811061130e5761130e611c15565b6020026020010151905061133a6001826affffffffffffffffffffff191661193290919063ffffffff16565b156113bc576040517f57066c9c000000000000000000000000000000000000000000000000000000008152606082901c906357066c9c90611389908c908c908c908c908c908c9060040161202e565b600060405180830381600087803b1580156113a357600080fd5b505af11580156113b7573d6000803e3d6000fd5b505050505b50806113c781611f95565b9150506112f1565b5060006113dc8888610e6e565b905060006020870190506113f4826000838a51611950565b60006113ff85610fbf565b11156114835760006114118a8a6117e0565b878155905060208601915060008060005b61142b88610fbf565b8160ff16101561147e576114408d8d8361100f565b925061145b8a8260ff166028026038011c64ffffffffff1690565b915061146a8360008785611950565b6114748286611f28565b9450600101611422565b505050505b60005b8351811015610c6a5760008482815181106114a3576114a3611c15565b602002602001015190506114cf6002826affffffffffffffffffffff191661193290919063ffffffff16565b15611551576040517f5b28cdaf000000000000000000000000000000000000000000000000000000008152606082901c90635b28cdaf9061151e908e908e908e908e908e908e9060040161202e565b600060405180830381600087803b15801561153857600080fd5b505af115801561154c573d6000803e3d6000fd5b505050505b508061155c81611f95565b915050611486565b60006115708585610e6e565b9050847f8c0b5119d4cec7b284c6b1b39252a03d1e2f2d7451a5895562524c113bb952be8585856040516115a693929190612087565b60405180910390a2613a3160f11b857fffff00000000000000000000000000000000000000000000000000000000000016146115e2575061036c565b60006115ed86611852565b905060005b81518110156116cc57600082828151811061160f5761160f611c15565b6020026020010151905061163b6004826affffffffffffffffffffff191661193290919063ffffffff16565b156116b9576040517f964f667d000000000000000000000000000000000000000000000000000000008152606082901c9063964f667d90611686908b908b908b908b906004016120ba565b600060405180830381600087803b1580156116a057600080fd5b505af11580156116b4573d6000803e3d6000fd5b505050505b50806116c481611f95565b9150506115f2565b506116e0828565ffffffffffff1685611a10565b60005b815181101561086a57600082828151811061170057611700611c15565b6020026020010151905061172c6008826affffffffffffffffffffff191661193290919063ffffffff16565b156117aa576040517fa8ba8721000000000000000000000000000000000000000000000000000000008152606082901c9063a8ba872190611777908b908b908b908b906004016120ba565b600060405180830381600087803b15801561179157600080fd5b505af11580156117a5573d6000803e3d6000fd5b505050505b50806117b581611f95565b9150506116e3565b60405160208101601f19603f8584010116604052838252610eff8585858461108f565b600082826040516020016117f5929190611f5a565b60408051601f1981840301815291905280516020909101207f14e2fcc58e58e68ec7edc30c8d50dccc3ce2714a623ec81f46b6a63922d76569189392505050565b6040805160208101849052908101829052600090606001610e83565b6040805160018082528183019092526060916000919060208083019080368337019050509050828160008151811061188c5761188c611c15565b60209081029190910181019190915260408051613a3160f11b818401527f73746f726500000000000000000000000000000000000000000000000000000060228201527f53746f7265486f6f6b73000000000000000000000000000000000000000000006030820152815180820390930183528101905260009061191b9061191390611c2b565b836000611a25565b90506104ad61192d8260008451611a5f565b611aef565b60008160ff16826119438560581c90565b1660ff1614905092915050565b82156119ca576020831061197a5760208304840193506020838161197657611976611faf565b0692505b82156119ca5760208390036000600019600884021c1990506008850281811c91508451811c90508119875416828216178755508183116119bb57505061036c565b50600194909401939182019190035b5b602081106119ec5781518455600190930192602090910190601f19016119cb565b801561036c576000600019600883021c198554845182169119161785555050505050565b611a208383602084018451611950565b505050565b60606104ad611a3585858561100f565b611a5884611a438888610ffc565b9060ff166028026038011c64ffffffffff1690565b60006117bd565b6000818311158015611a72575083518211155b611aae578383836040517f23230fa3000000000000000000000000000000000000000000000000000000008152600401610236939291906120f3565b60208401611abc8482611f28565b90506000611aca8585611fc5565b6fffffffffffffffffffffffffffffffff1660809290921b9190911795945050505050565b60606000610fb8836015600060606000611b098560801c90565b90506fffffffffffffffffffffffffffffffff85166000858281611b2f57611b2f611faf565b04905060405193506020840160208202810160405281855260005b82811015611b6a578451871c825293870193602090910190600101611b4a565b50505050509392505050565b600060208284031215611b8857600080fd5b81357fffffffff0000000000000000000000000000000000000000000000000000000081168114610fb857600080fd5b803563ffffffff811681146109e157600080fd5b60008060408385031215611bdf57600080fd5b611be883611bb8565b9150611bf660208401611bb8565b90509250929050565b634e487b7160e01b600052604160045260246000fd5b634e487b7160e01b600052603260045260246000fd5b80516020808301519190811015611c4c576000198160200360031b1b821691505b50919050565b634e487b7160e01b600052601160045260246000fd5b63ffffffff828116828216039080821115611c8557611c85611c52565b5092915050565b63ffffffff818116838216019080821115611c8557611c85611c52565b600081518084526020808501945080840160005b83811015611cd957815187529582019590820190600101611cbd565b509495945050505050565b848152608060208201526000611cfd6080830186611ca9565b60ff949094166040830152506060015292915050565b600060208284031215611d2557600080fd5b5051919050565b838152606060208201526000611d456060830185611ca9565b9050826040830152949350505050565b60005b83811015611d70578181015183820152602001611d58565b50506000910152565b600082601f830112611d8a57600080fd5b815167ffffffffffffffff80821115611da557611da5611bff565b604051601f8301601f19908116603f01168101908282118183101715611dcd57611dcd611bff565b81604052838152866020858801011115611de657600080fd5b6106d1846020830160208901611d55565b600080600060608486031215611e0c57600080fd5b835167ffffffffffffffff80821115611e2457600080fd5b611e3087838801611d79565b9450602086015193506040860151915080821115611e4d57600080fd5b50611e5a86828701611d79565b9150509250925092565b60008151808452611e7c816020860160208601611d55565b601f01601f19169290920160200192915050565b85815260a060208201526000611ea960a0830187611ca9565b8281036040840152611ebb8187611e64565b90508460608401528281036080840152611ed58185611e64565b98975050505050505050565b85815260a060208201526000611efa60a0830187611ca9565b60ff861660408401528281036060840152611f158186611e64565b9150508260808301529695505050505050565b8082018082111561018457610184611c52565b600060ff821660ff8103611f5157611f51611c52565b60010192915050565b82815260006020808301845182860160005b82811015611f8857815184529284019290840190600101611f6c565b5091979650505050505050565b60006000198203611fa857611fa8611c52565b5060010190565b634e487b7160e01b600052601260045260246000fd5b8181038181111561018457610184611c52565b808202811582820484141761018457610184611c52565b6080815260006120026080830187611ca9565b82810360208401526120148187611e64565b905084604084015282810360608401526107468185611e64565b86815260c06020820152600061204760c0830188611ca9565b82810360408401526120598188611e64565b905085606084015282810360808401526120738186611e64565b9150508260a0830152979650505050505050565b60608152600061209a6060830186611ca9565b65ffffffffffff8516602084015282810360408401526106d18185611e64565b8481526080602082015260006120d36080830186611ca9565b65ffffffffffff8516604084015282810360608401526107468185611e64565b6060815260006121066060830186611e64565b6020830194909452506040015291905056fea26469706673582212202c327feffb3ff81f0505b8f59434e8a70497ac208cda2b01da1c4ffdb547d0f664736f6c63430008150033",
    "linkReferences": {}
  },
  "methodIdentifiers": {
    "_msgSender()": "119df25f",
    "_msgValue()": "45ec9354",
    "_world()": "e1af802c",
    "move(uint32,uint32)": "16254d8d",
    "supportsInterface(bytes4)": "01ffc9a7"
  },
  "id": 141
}