{
  "abi": [
    {
      "inputs": [
        {
          "internalType": "bytes",
          "name": "data",
          "type": "bytes"
        },
        {
          "internalType": "uint256",
          "name": "start",
          "type": "uint256"
        },
        {
          "internalType": "uint256",
          "name": "end",
          "type": "uint256"
        }
      ],
      "name": "Slice_OutOfBounds",
      "type": "error"
    },
    {
      "anonymous": false,
      "inputs": [
        {
          "indexed": true,
          "internalType": "ResourceId",
          "name": "tableId",
          "type": "bytes32"
        },
        {
          "indexed": false,
          "internalType": "bytes32[]",
          "name": "keyTuple",
          "type": "bytes32[]"
        },
        {
          "indexed": false,
          "internalType": "uint48",
          "name": "start",
          "type": "uint48"
        },
        {
          "indexed": false,
          "internalType": "bytes",
          "name": "data",
          "type": "bytes"
        }
      ],
      "name": "Store_SpliceStaticData",
      "type": "event"
    },
    {
      "inputs": [],
      "name": "_msgSender",
      "outputs": [
        {
          "internalType": "address",
          "name": "sender",
          "type": "address"
        }
      ],
      "stateMutability": "view",
      "type": "function"
    },
    {
      "inputs": [],
      "name": "_msgValue",
      "outputs": [
        {
          "internalType": "uint256",
          "name": "value",
          "type": "uint256"
        }
      ],
      "stateMutability": "pure",
      "type": "function"
    },
    {
      "inputs": [],
      "name": "_world",
      "outputs": [
        {
          "internalType": "address",
          "name": "",
          "type": "address"
        }
      ],
      "stateMutability": "view",
      "type": "function"
    },
    {
      "inputs": [
        {
          "internalType": "address",
          "name": "defender",
          "type": "address"
        }
      ],
      "name": "attack",
      "outputs": [],
      "stateMutability": "nonpayable",
      "type": "function"
    },
    {
      "inputs": [
        {
          "internalType": "bytes4",
          "name": "interfaceId",
          "type": "bytes4"
        }
      ],
      "name": "supportsInterface",
      "outputs": [
        {
          "internalType": "bool",
          "name": "",
          "type": "bool"
        }
      ],
      "stateMutability": "pure",
      "type": "function"
    }
  ],
  "bytecode": {
    "object": "0x608060405234801561001057600080fd5b50611d2f806100206000396000f3fe608060405234801561001057600080fd5b50600436106100675760003560e01c806345ec93541161005057806345ec9354146100b4578063d018db3e146100c7578063e1af802c146100dc57600080fd5b806301ffc9a71461006c578063119df25f14610094575b600080fd5b61007f61007a366004611853565b6100e4565b60405190151581526020015b60405180910390f35b61009c61017d565b6040516001600160a01b03909116815260200161008b565b604051601f19360135815260200161008b565b6100da6100d5366004611895565b61018c565b005b61009c61045a565b60007fffffffff0000000000000000000000000000000000000000000000000000000082167fb421288000000000000000000000000000000000000000000000000000000000148061017757507fffffffff0000000000000000000000000000000000000000000000000000000082167f01ffc9a700000000000000000000000000000000000000000000000000000000145b92915050565b6000610187610464565b905090565b600061019661017d565b905060006101a382610496565b905060006101b084610496565b905060016101d083600001518460200151846000015185602001516105de565b63ffffffff161115610269576040517f08c379a000000000000000000000000000000000000000000000000000000000815260206004820152603660248201527f63616e206f6e6c792061747461636b20616e6f7468657220706c61796572206160448201527f7420616e2061646a6163656e7420706f736974696f6e0000000000000000000060648201526084015b60405180910390fd5b600061027484610656565b905080600003610306576040517f08c379a000000000000000000000000000000000000000000000000000000000815260206004820152602260248201527f61747461636b6572206d75737420686176652063616e647920746f206174746160448201527f636b0000000000000000000000000000000000000000000000000000000000006064820152608401610260565b600061031186610656565b9050806000036103a3576040517f08c379a000000000000000000000000000000000000000000000000000000000815260206004820152602760248201527f646566656e646572206d75737420686176652063616e647920746f206265206160448201527f747461636b6564000000000000000000000000000000000000000000000000006064820152608401610260565b6000818311156103be576103b782846118d4565b90506103c2565b5060015b60006103cd88610737565b90508063ffffffff1682106103e4575060006103f2565b6103ef6001826118e7565b90505b6103fc8882610829565b8063ffffffff166000036104505761041d87610418858761190b565b610953565b610428886000610953565b6104458761043589610a51565b61044090600161191e565b610afc565b610450886000610afc565b5050505050505050565b6000610187610ba1565b7fffffffffffffffffffffffffffffffffffffffffffffffffffffffffffffffcc36013560601c806104935750335b90565b604080518082018252600080825260208201819052825160018082528185019094529192909190816020016020820280368337019050509050826001600160a01b031660001b816000815181106104ef576104ef611951565b60209081029190910181019190915260408051613a3160f11b818401527f67726173736c616e64000000000000000000000000000000000000000000000060228201527f506f736974696f6e00000000000000000000000000000000000000000000000060308201528151808203909301835281019052600090819081906105a09061057a90611967565b857e08020004040000000000000000000000000000000000000000000000000000610be0565b6040805180820190915260008082526020808301918252850151602486015160e090811c909252901c815292955090935091505b9695505050505050565b6000808363ffffffff168663ffffffff1611610603576105fe86856118e7565b61060d565b61060d84876118e7565b905060008363ffffffff168663ffffffff16116106335761062e86856118e7565b61063d565b61063d84876118e7565b9050610649818361191e565b925050505b949350505050565b60408051600180825281830190925260009182919060208083019080368337019050509050826001600160a01b031660001b8160008151811061069b5761069b611951565b60209081029190910181019190915260408051613a3160f11b818401526918d85b991e5ddbdc9b1960b21b60228201527f43616e647942616c616e636500000000000000000000000000000000000000006030820152815180820390930183528101905260009061064e9061070f90611967565b8360007e20010020000000000000000000000000000000000000000000000000000000610cb0565b60408051600180825281830190925260009182919060208083019080368337019050509050826001600160a01b031660001b8160008151811061077c5761077c611951565b60209081029190910181019190915260408051613a3160f11b928101929092526918d85b991e5ddbdc9b1960b21b60228301527f4865616c74680000000000000000000000000000000000000000000000000000603083015260009161081e91015b6040516020818303038152906040526107f690611967565b8360007e04010004000000000000000000000000000000000000000000000000000000610cb0565b60e01c949350505050565b60408051600180825281830190925260009160208083019080368337019050509050826001600160a01b031660001b8160008151811061086b5761086b611951565b60209081029190910181019190915260408051613a3160f11b928101929092526918d85b991e5ddbdc9b1960b21b60228301527f4865616c74680000000000000000000000000000000000000000000000000000603083015261094e91015b6040516020818303038152906040526108e290611967565b6040517fffffffff0000000000000000000000000000000000000000000000000000000060e086901b166020820152839060009060240160408051601f198184030181529190527e04010004000000000000000000000000000000000000000000000000000000610d6d565b505050565b60408051600180825281830190925260009160208083019080368337019050509050826001600160a01b031660001b8160008151811061099557610995611951565b60209081029190910181019190915260408051613a3160f11b818401526918d85b991e5ddbdc9b1960b21b60228201527f43616e647942616c616e636500000000000000000000000000000000000000006030820152815180820390930183528101905261094e90610a0690611967565b82600085604051602001610a1c91815260200190565b60408051601f198184030181529190527e20010020000000000000000000000000000000000000000000000000000000610d6d565b60408051600180825281830190925260009182919060208083019080368337019050509050826001600160a01b031660001b81600081518110610a9657610a96611951565b60209081029190910181019190915260408051613a3160f11b928101929092526918d85b991e5ddbdc9b1960b21b60228301527f4b696c6c53747265616b00000000000000000000000000000000000000000000603083015260009161081e91016107de565b60408051600180825281830190925260009160208083019080368337019050509050826001600160a01b031660001b81600081518110610b3e57610b3e611951565b60209081029190910181019190915260408051613a3160f11b928101929092526918d85b991e5ddbdc9b1960b21b60228301527f4b696c6c53747265616b00000000000000000000000000000000000000000000603083015261094e91016108ca565b7f629a4c26e296b22a8e0856e9f6ecb2d1008d7e00081111962cd175fa7488e175546000906001600160a01b031680610bdb573391505090565b919050565b6060600060606000610bf0610ba1565b9050306001600160a01b03821603610c1957610c0d878787610e23565b93509350935050610ca7565b6040517f419b58fd0000000000000000000000000000000000000000000000000000000081526001600160a01b0382169063419b58fd90610c62908a908a908a906004016119c9565b600060405180830381865afa158015610c7f573d6000803e3d6000fd5b505050506040513d6000823e601f3d908101601f19168201604052610c0d9190810190611a94565b93509350939050565b600080610cbb610ba1565b9050306001600160a01b03821603610ce157610cd986868686610f2b565b91505061064e565b6040517f8c364d590000000000000000000000000000000000000000000000000000000081526001600160a01b03821690638c364d5990610d2c908990899089908990600401611b01565b602060405180830381865afa158015610d49573d6000803e3d6000fd5b505050506040513d601f19601f82011682018060405250810190610cd99190611b30565b6000610d77610ba1565b9050306001600160a01b03821603610d9b57610d968686868686610f61565b610e1b565b6040517f390baae00000000000000000000000000000000000000000000000000000000081526001600160a01b0382169063390baae090610de89089908990899089908990600401611b75565b600060405180830381600087803b158015610e0257600080fd5b505af1158015610e16573d6000803e3d6000fd5b505050505b505050505050565b6060600060606000610e3485610f7d565b9050610e41878783610fa0565b93506000610e4e86610fe4565b90508015610f2057610e608888611021565b935066ffffffffffffff841667ffffffffffffffff811115610e8457610e8461193b565b6040519080825280601f01601f191660200182016040528015610eae576020820181803683370190505b5092506020830160005b828160ff161015610f1d576000610ed08b8b84611034565b90506000610eed888460ff166028026038011c64ffffffffff1690565b9050610efc82826000876110b4565b610f06818561190b565b935050508080610f1590611bbc565b915050610eb8565b50505b505093509350939050565b6000610f58610f3a868661116a565b60ff858116601b0360080285901c16610f5385876111c0565b611203565b95945050505050565b610f768585610f7084876111c0565b85611254565b5050505050565b60006008610f8d600260206118d4565b610f979190611bdb565b9190911c919050565b606081600003610fbf5750604080516020810190915260008152610fdd565b6000610fcb858561116a565b9050610fd9818460006114b6565b9150505b9392505050565b60006008600180610ff7600260206118d4565b61100191906118d4565b61100b91906118d4565b6110159190611bdb565b8260ff911c1692915050565b6000610fdd61103084846114d9565b5490565b60008383604051602001611049929190611bf2565b604051602081830303815290604052805190602001208260f81b7effffffffffffffffffffffffffffffffffffffffffffffffffffffffffffff19167f3b4102da22e32d82fc925482184f16c09fd4281692720b87d124aef6da48a0f1181860001c90509392505050565b811561112657602082106110de576020820484019350602082816110da576110da611c2d565b0691505b81156111265760208290036000600019600883021c1990508554600885021b811984511682821617845250818511611117575050611164565b50600194909401939283900392015b5b602083106111485783548152600190930192601f1990920191602001611127565b82156111645780518454600019600886021c9182169119161781525b50505050565b6000828260405160200161117f929190611bf2565b60408051601f1981840301815291905280516020909101207f86425bff6b57326c7859e89024fe4f238ca327a1ae4a230180dd2f0e88aaa7d9189392505050565b600080805b8360ff168110156111fb576111e760ff601b83900360080287901c168361190b565b9150806111f381611c43565b9150506111c5565b509392505050565b6000602082106112295760208204840193506020828161122557611225611c2d565b0691505b508254600882021b6020829003808411156111fb576001850154600882021c82179150509392505050565b6000611260858561116a565b9050847f8c0b5119d4cec7b284c6b1b39252a03d1e2f2d7451a5895562524c113bb952be85858560405161129693929190611c5d565b60405180910390a2613a3160f11b857fffff00000000000000000000000000000000000000000000000000000000000016146112d25750611164565b60006112dd8661152f565b905060005b81518110156113bc5760008282815181106112ff576112ff611951565b6020026020010151905061132b6004826affffffffffffffffffffff191661160f90919063ffffffff16565b156113a9576040517f964f667d000000000000000000000000000000000000000000000000000000008152606082901c9063964f667d90611376908b908b908b908b90600401611c90565b600060405180830381600087803b15801561139057600080fd5b505af11580156113a4573d6000803e3d6000fd5b505050505b50806113b481611c43565b9150506112e2565b506113d0828565ffffffffffff168561162d565b60005b81518110156114ad5760008282815181106113f0576113f0611951565b6020026020010151905061141c6008826affffffffffffffffffffff191661160f90919063ffffffff16565b1561149a576040517fa8ba8721000000000000000000000000000000000000000000000000000000008152606082901c9063a8ba872190611467908b908b908b908b90600401611c90565b600060405180830381600087803b15801561148157600080fd5b505af1158015611495573d6000803e3d6000fd5b505050505b50806114a581611c43565b9150506113d3565b50505050505050565b60405160208101601f19603f85840101166040528382526111fb858585846110b4565b600082826040516020016114ee929190611bf2565b60408051601f1981840301815291905280516020909101207f14e2fcc58e58e68ec7edc30c8d50dccc3ce2714a623ec81f46b6a63922d76569189392505050565b6040805160018082528183019092526060916000919060208083019080368337019050509050828160008151811061156957611569611951565b60209081029190910181019190915260408051613a3160f11b818401527f73746f726500000000000000000000000000000000000000000000000000000060228201527f53746f7265486f6f6b7300000000000000000000000000000000000000000000603082015281518082039093018352810190526000906115f8906115f090611967565b83600061163d565b905061064e61160a8260008451611677565b611707565b60008160ff16826116208560581c90565b1660ff1614905092915050565b61094e8383602084018451611718565b606061064e61164d858585611034565b6116708461165b8888611021565b9060ff166028026038011c64ffffffffff1690565b60006114b6565b600081831115801561168a575083518211155b6116c6578383836040517f23230fa300000000000000000000000000000000000000000000000000000000815260040161026093929190611cd4565b602084016116d4848261190b565b905060006116e285856118d4565b6fffffffffffffffffffffffffffffffff1660809290921b9190911795945050505050565b60606000610fdd83601560006117d8565b821561179257602083106117425760208304840193506020838161173e5761173e611c2d565b0692505b82156117925760208390036000600019600884021c1990506008850281811c91508451811c9050811987541682821617875550818311611783575050611164565b50600194909401939182019190035b5b602081106117b45781518455600190930192602090910190601f1901611793565b8015611164576000600019600883021c198554845182169119161785555050505050565b606060006117e68560801c90565b90506fffffffffffffffffffffffffffffffff8516600085828161180c5761180c611c2d565b04905060405193506020840160208202810160405281855260005b82811015611847578451871c825293870193602090910190600101611827565b50505050509392505050565b60006020828403121561186557600080fd5b81357fffffffff0000000000000000000000000000000000000000000000000000000081168114610fdd57600080fd5b6000602082840312156118a757600080fd5b81356001600160a01b0381168114610fdd57600080fd5b634e487b7160e01b600052601160045260246000fd5b81810381811115610177576101776118be565b63ffffffff828116828216039080821115611904576119046118be565b5092915050565b80820180821115610177576101776118be565b63ffffffff818116838216019080821115611904576119046118be565b634e487b7160e01b600052604160045260246000fd5b634e487b7160e01b600052603260045260246000fd5b80516020808301519190811015611988576000198160200360031b1b821691505b50919050565b600081518084526020808501945080840160005b838110156119be578151875295820195908201906001016119a2565b509495945050505050565b8381526060602082015260006119e2606083018561198e565b9050826040830152949350505050565b60005b83811015611a0d5781810151838201526020016119f5565b50506000910152565b600082601f830112611a2757600080fd5b815167ffffffffffffffff80821115611a4257611a4261193b565b604051601f8301601f19908116603f01168101908282118183101715611a6a57611a6a61193b565b81604052838152866020858801011115611a8357600080fd5b6105d48460208301602089016119f2565b600080600060608486031215611aa957600080fd5b835167ffffffffffffffff80821115611ac157600080fd5b611acd87838801611a16565b9450602086015193506040860151915080821115611aea57600080fd5b50611af786828701611a16565b9150509250925092565b848152608060208201526000611b1a608083018661198e565b60ff949094166040830152506060015292915050565b600060208284031215611b4257600080fd5b5051919050565b60008151808452611b618160208601602086016119f2565b601f01601f19169290920160200192915050565b85815260a060208201526000611b8e60a083018761198e565b60ff861660408401528281036060840152611ba98186611b49565b9150508260808301529695505050505050565b600060ff821660ff8103611bd257611bd26118be565b60010192915050565b8082028115828204841417610177576101776118be565b82815260006020808301845182860160005b82811015611c2057815184529284019290840190600101611c04565b5091979650505050505050565b634e487b7160e01b600052601260045260246000fd5b60006000198203611c5657611c566118be565b5060010190565b606081526000611c70606083018661198e565b65ffffffffffff8516602084015282810360408401526105d48185611b49565b848152608060208201526000611ca9608083018661198e565b65ffffffffffff851660408401528281036060840152611cc98185611b49565b979650505050505050565b606081526000611ce76060830186611b49565b6020830194909452506040015291905056fea26469706673582212203419a6ba61a3ea831a1b01af9fce774ff7da6985b55989209740d8dae7879d7a64736f6c63430008150033",
    "linkReferences": {}
  },
  "methodIdentifiers": {
    "_msgSender()": "119df25f",
    "_msgValue()": "45ec9354",
    "_world()": "e1af802c",
    "attack(address)": "d018db3e",
    "supportsInterface(bytes4)": "01ffc9a7"
  },
  "id": 149
}