{
  "abi": [
    {
      "inputs": [
        {
          "internalType": "bytes",
          "name": "data",
          "type": "bytes"
        },
        {
          "internalType": "uint256",
          "name": "start",
          "type": "uint256"
        },
        {
          "internalType": "uint256",
          "name": "end",
          "type": "uint256"
        }
      ],
      "name": "Slice_OutOfBounds",
      "type": "error"
    },
    {
      "anonymous": false,
      "inputs": [
        {
          "indexed": true,
          "internalType": "ResourceId",
          "name": "tableId",
          "type": "bytes32"
        },
        {
          "indexed": false,
          "internalType": "bytes32[]",
          "name": "keyTuple",
          "type": "bytes32[]"
        },
        {
          "indexed": false,
          "internalType": "bytes",
          "name": "staticData",
          "type": "bytes"
        },
        {
          "indexed": false,
          "internalType": "PackedCounter",
          "name": "encodedLengths",
          "type": "bytes32"
        },
        {
          "indexed": false,
          "internalType": "bytes",
          "name": "dynamicData",
          "type": "bytes"
        }
      ],
      "name": "Store_SetRecord",
      "type": "event"
    },
    {
      "anonymous": false,
      "inputs": [
        {
          "indexed": true,
          "internalType": "ResourceId",
          "name": "tableId",
          "type": "bytes32"
        },
        {
          "indexed": false,
          "internalType": "bytes32[]",
          "name": "keyTuple",
          "type": "bytes32[]"
        },
        {
          "indexed": false,
          "internalType": "uint48",
          "name": "start",
          "type": "uint48"
        },
        {
          "indexed": false,
          "internalType": "bytes",
          "name": "data",
          "type": "bytes"
        }
      ],
      "name": "Store_SpliceStaticData",
      "type": "event"
    },
    {
      "inputs": [],
      "name": "_msgSender",
      "outputs": [
        {
          "internalType": "address",
          "name": "sender",
          "type": "address"
        }
      ],
      "stateMutability": "view",
      "type": "function"
    },
    {
      "inputs": [],
      "name": "_msgValue",
      "outputs": [
        {
          "internalType": "uint256",
          "name": "value",
          "type": "uint256"
        }
      ],
      "stateMutability": "pure",
      "type": "function"
    },
    {
      "inputs": [],
      "name": "_world",
      "outputs": [
        {
          "internalType": "address",
          "name": "",
          "type": "address"
        }
      ],
      "stateMutability": "view",
      "type": "function"
    },
    {
      "inputs": [
        {
          "internalType": "uint32",
          "name": "x",
          "type": "uint32"
        },
        {
          "internalType": "uint32",
          "name": "y",
          "type": "uint32"
        }
      ],
      "name": "spawn",
      "outputs": [],
      "stateMutability": "nonpayable",
      "type": "function"
    },
    {
      "inputs": [
        {
          "internalType": "bytes4",
          "name": "interfaceId",
          "type": "bytes4"
        }
      ],
      "name": "supportsInterface",
      "outputs": [
        {
          "internalType": "bool",
          "name": "",
          "type": "bool"
        }
      ],
      "stateMutability": "pure",
      "type": "function"
    }
  ],
  "bytecode": {
    "object": "0x608060405234801561001057600080fd5b50611c0e806100206000396000f3fe608060405234801561001057600080fd5b50600436106100675760003560e01c806345ec93541161005057806345ec9354146100c1578063a3a8e72d146100d4578063e1af802c146100e957600080fd5b806301ffc9a71461006c578063119df25f14610094575b600080fd5b61007f61007a36600461176a565b6100f1565b60405190151581526020015b60405180910390f35b61009c61018a565b60405173ffffffffffffffffffffffffffffffffffffffff909116815260200161008b565b604051601f19360135815260200161008b565b6100e76100e23660046117c0565b610199565b005b61009c6102b2565b60007fffffffff0000000000000000000000000000000000000000000000000000000082167fb421288000000000000000000000000000000000000000000000000000000000148061018457507fffffffff0000000000000000000000000000000000000000000000000000000082167f01ffc9a700000000000000000000000000000000000000000000000000000000145b92915050565b60006101946102bc565b905090565b60006101a361018a565b90506101ae816102ee565b1561021a576040517f08c379a000000000000000000000000000000000000000000000000000000000815260206004820152601360248201527f63616e206f6e6c7920737061776e206f6e63650000000000000000000000000060448201526064015b60405180910390fd5b61022483836103f5565b1561028b576040517f08c379a000000000000000000000000000000000000000000000000000000000815260206004820152601860248201527f74686973207370616365206973206f62737472756374656400000000000000006044820152606401610211565b6102968160016104da565b6102a18184846105ef565b6102ad83836001610711565b505050565b60006101946107e0565b7fffffffffffffffffffffffffffffffffffffffffffffffffffffffffffffffcc36013560601c806102eb5750335b90565b604080516001808252818301909252600091829190602080830190803683370190505090508273ffffffffffffffffffffffffffffffffffffffff1660001b81600081518110610340576103406117f3565b60209081029190910181019190915260408051613a3160f11b928101929092526819dc985cdcdb185b9960ba1b60228301527f537061776e65640000000000000000000000000000000000000000000000000060308301526000916103e191015b6040516020818303038152906040526103b990611822565b8360007e0101000100000000000000000000000000000000000000000000000000000061082c565b90506103ed8160f81c90565b949350505050565b604080516002808252606082018352600092839291906020830190803683370190505090508363ffffffff1660001b81600081518110610437576104376117f3565b6020026020010181815250508263ffffffff1660001b81600181518110610460576104606117f3565b60209081029190910181019190915260408051613a3160f11b928101929092526819dc985cdcdb185b9960ba1b60228301527f4f62737472756374696f6e00000000000000000000000000000000000000000060308301526000916104c591016103a1565b90506104d18160f81c90565b95945050505050565b604080516001808252818301909252600091602080830190803683370190505090508273ffffffffffffffffffffffffffffffffffffffff1660001b81600081518110610529576105296117f3565b60209081029190910181019190915260408051613a3160f11b928101929092526819dc985cdcdb185b9960ba1b60228301527f537061776e65640000000000000000000000000000000000000000000000000060308301526102ad91015b60405160208183030381529060405261059f90611822565b826000856040516020016105ba91151560f81b815260010190565b60408051601f198184030181529190527e01010001000000000000000000000000000000000000000000000000000000610903565b6040805160e084811b7fffffffff000000000000000000000000000000000000000000000000000000009081166020808501919091529185901b1660248301528251600881840301815260016028840181815260688501909552909360009360609385939160480190803683370190505090508673ffffffffffffffffffffffffffffffffffffffff1660001b8160008151811061068f5761068f6117f3565b60209081029190910181019190915260408051613a3160f11b818401526819dc985cdcdb185b9960ba1b60228201527f506f736974696f6e00000000000000000000000000000000000000000000000060308201528151808203909301835281019052610708906106ff90611822565b828686866109d3565b50505050505050565b6040805160028082526060820183526000926020830190803683370190505090508363ffffffff1660001b8160008151811061074f5761074f6117f3565b6020026020010181815250508263ffffffff1660001b81600181518110610778576107786117f3565b60209081029190910181019190915260408051613a3160f11b928101929092526819dc985cdcdb185b9960ba1b60228301527f4f62737472756374696f6e00000000000000000000000000000000000000000060308301526107da9101610587565b50505050565b7f629a4c26e296b22a8e0856e9f6ecb2d1008d7e00081111962cd175fa7488e1755460009073ffffffffffffffffffffffffffffffffffffffff1680610827573391505090565b919050565b6000806108376107e0565b90503073ffffffffffffffffffffffffffffffffffffffff82160361086a5761086286868686610a63565b9150506103ed565b6040517f8c364d5900000000000000000000000000000000000000000000000000000000815273ffffffffffffffffffffffffffffffffffffffff821690638c364d59906108c2908990899089908990600401611884565b602060405180830381865afa1580156108df573d6000803e3d6000fd5b505050506040513d601f19601f8201168201806040525081019061086291906118b3565b600061090d6107e0565b90503073ffffffffffffffffffffffffffffffffffffffff82160361093e576109398686868686610a90565b6109cb565b6040517f390baae000000000000000000000000000000000000000000000000000000000815273ffffffffffffffffffffffffffffffffffffffff82169063390baae0906109989089908990899089908990600401611912565b600060405180830381600087803b1580156109b257600080fd5b505af11580156109c6573d6000803e3d6000fd5b505050505b505050505050565b60006109dd6107e0565b90503073ffffffffffffffffffffffffffffffffffffffff821603610a09576109398686868686610aac565b6040517f298314fb00000000000000000000000000000000000000000000000000000000815273ffffffffffffffffffffffffffffffffffffffff82169063298314fb906109989089908990899089908990600401611959565b60006104d1610a728686610ac2565b60ff858116601b0360080285901c16610a8b8587610b18565b610b5b565b610aa58585610a9f8487610b18565b85610bac565b5050505050565b610aa58585858585610abd8b610e05565b610f33565b60008282604051602001610ad79291906119aa565b60408051601f1981840301815291905280516020909101207f86425bff6b57326c7859e89024fe4f238ca327a1ae4a230180dd2f0e88aaa7d9189392505050565b600080805b8360ff16811015610b5357610b3f60ff601b83900360080287901c1683611a14565b915080610b4b81611a27565b915050610b1d565b509392505050565b600060208210610b8157602082048401935060208281610b7d57610b7d611a41565b0691505b508254600882021b602082900380841115610b53576001850154600882021c82179150509392505050565b6000610bb88585610ac2565b9050847f8c0b5119d4cec7b284c6b1b39252a03d1e2f2d7451a5895562524c113bb952be858585604051610bee93929190611a70565b60405180910390a2613a3160f11b857fffff0000000000000000000000000000000000000000000000000000000000001614610c2a57506107da565b6000610c3586611222565b905060005b8151811015610d14576000828281518110610c5757610c576117f3565b60200260200101519050610c836004826affffffffffffffffffffff191661130290919063ffffffff16565b15610d01576040517f964f667d000000000000000000000000000000000000000000000000000000008152606082901c9063964f667d90610cce908b908b908b908b90600401611aad565b600060405180830381600087803b158015610ce857600080fd5b505af1158015610cfc573d6000803e3d6000fd5b505050505b5080610d0c81611a27565b915050610c3a565b50610d28828565ffffffffffff1685611320565b60005b8151811015610708576000828281518110610d4857610d486117f3565b60200260200101519050610d746008826affffffffffffffffffffff191661130290919063ffffffff16565b15610df2576040517fa8ba8721000000000000000000000000000000000000000000000000000000008152606082901c9063a8ba872190610dbf908b908b908b908b90600401611aad565b600060405180830381600087803b158015610dd957600080fd5b505af1158015610ded573d6000803e3d6000fd5b505050505b5080610dfd81611a27565b915050610d2b565b60408051613a3160f11b60208201527f73746f726500000000000000000000000000000000000000000000000000000060228201527f5461626c65730000000000000000000000000000000000000000000000000000603082015260009101604051602081830303815290604052610e7c90611822565b8203610ea857507e60030220202000000000000000000000000000000000000000000000000000919050565b60408051613a3160f11b60208201527f73746f726500000000000000000000000000000000000000000000000000000060228201527f5461626c65730000000000000000000000000000000000000000000000000000603082015261018491610f2a9101604051602081830303815290604052610f2490611822565b84611330565b60206000610b5b565b857f8dbb3a9672eebfd3773e72dd9c102393436816d832c7ba9e1e1ac8fcadcac7a986868686604051610f699493929190611af1565b60405180910390a2613a3160f11b867fffff00000000000000000000000000000000000000000000000000000000000016036109cb576000610faa87611222565b905060005b815181101561108d576000828281518110610fcc57610fcc6117f3565b60200260200101519050610ff86001826affffffffffffffffffffff191661130290919063ffffffff16565b1561107a576040517f57066c9c000000000000000000000000000000000000000000000000000000008152606082901c906357066c9c90611047908c908c908c908c908c908c90600401611b30565b600060405180830381600087803b15801561106157600080fd5b505af1158015611075573d6000803e3d6000fd5b505050505b508061108581611a27565b915050610faf565b50600061109a8888610ac2565b905060006020870190506110b2826000838a5161134c565b60006110bd8561140c565b11156111415760006110cf8a8a611449565b878155905060208601915060008060005b6110e98861140c565b8160ff16101561113c576110fe8d8d8361149f565b92506111198a8260ff166028026038011c64ffffffffff1690565b9150611128836000878561134c565b6111328286611a14565b94506001016110e0565b505050505b60005b83518110156109c6576000848281518110611161576111616117f3565b6020026020010151905061118d6002826affffffffffffffffffffff191661130290919063ffffffff16565b1561120f576040517f5b28cdaf000000000000000000000000000000000000000000000000000000008152606082901c90635b28cdaf906111dc908e908e908e908e908e908e90600401611b30565b600060405180830381600087803b1580156111f657600080fd5b505af115801561120a573d6000803e3d6000fd5b505050505b508061121a81611a27565b915050611144565b6040805160018082528183019092526060916000919060208083019080368337019050509050828160008151811061125c5761125c6117f3565b60209081029190910181019190915260408051613a3160f11b818401527f73746f726500000000000000000000000000000000000000000000000000000060228201527f53746f7265486f6f6b7300000000000000000000000000000000000000000000603082015281518082039093018352810190526000906112eb906112e390611822565b83600061151f565b90506103ed6112fd8260008451611559565b6115e9565b60008160ff16826113138560581c90565b1660ff1614905092915050565b6102ad838360208401845161134c565b6040805160208101849052908101829052600090606001610ad7565b82156113c657602083106113765760208304840193506020838161137257611372611a41565b0692505b82156113c65760208390036000600019600884021c1990506008850281811c91508451811c90508119875416828216178755508183116113b75750506107da565b50600194909401939182019190035b5b602081106113e85781518455600190930192602090910190601f19016113c7565b80156107da576000600019600883021c198554845182169119161785555050505050565b6000600860018061141f60026020611b89565b6114299190611b89565b6114339190611b89565b61143d9190611b9c565b8260ff911c1692915050565b6000828260405160200161145e9291906119aa565b60408051601f1981840301815291905280516020909101207f14e2fcc58e58e68ec7edc30c8d50dccc3ce2714a623ec81f46b6a63922d76569189392505050565b600083836040516020016114b49291906119aa565b604051602081830303815290604052805190602001208260f81b7effffffffffffffffffffffffffffffffffffffffffffffffffffffffffffff19167f3b4102da22e32d82fc925482184f16c09fd4281692720b87d124aef6da48a0f1181860001c90509392505050565b60606103ed61152f85858561149f565b6115528461153d8888611601565b9060ff166028026038011c64ffffffffff1690565b6000611614565b600081831115801561156c575083518211155b6115a8578383836040517f23230fa300000000000000000000000000000000000000000000000000000000815260040161021193929190611bb3565b602084016115b68482611a14565b905060006115c48585611b89565b6fffffffffffffffffffffffffffffffff1660809290921b9190911795945050505050565b606060006115fa8360156000611637565b9392505050565b60006115fa6116108484611449565b5490565b60405160208101601f19603f8584010116604052838252610b53858585846116b2565b606060006116458560801c90565b90506fffffffffffffffffffffffffffffffff8516600085828161166b5761166b611a41565b04905060405193506020840160208202810160405281855260005b828110156116a6578451871c825293870193602090910190600101611686565b50505050509392505050565b811561172457602082106116dc576020820484019350602082816116d8576116d8611a41565b0691505b81156117245760208290036000600019600883021c1990508554600885021b8119845116828216178452508185116117155750506107da565b50600194909401939283900392015b5b602083106117465783548152600190930192601f1990920191602001611725565b82156107da576000600019600885021c198251865482169119161782525050505050565b60006020828403121561177c57600080fd5b81357fffffffff00000000000000000000000000000000000000000000000000000000811681146115fa57600080fd5b803563ffffffff8116811461082757600080fd5b600080604083850312156117d357600080fd5b6117dc836117ac565b91506117ea602084016117ac565b90509250929050565b7f4e487b7100000000000000000000000000000000000000000000000000000000600052603260045260246000fd5b80516020808301519190811015611843576000198160200360031b1b821691505b50919050565b600081518084526020808501945080840160005b838110156118795781518752958201959082019060010161185d565b509495945050505050565b84815260806020820152600061189d6080830186611849565b60ff949094166040830152506060015292915050565b6000602082840312156118c557600080fd5b5051919050565b6000815180845260005b818110156118f2576020818501810151868301820152016118d6565b506000602082860101526020601f19601f83011685010191505092915050565b85815260a06020820152600061192b60a0830187611849565b60ff86166040840152828103606084015261194681866118cc565b9150508260808301529695505050505050565b85815260a06020820152600061197260a0830187611849565b828103604084015261198481876118cc565b9050846060840152828103608084015261199e81856118cc565b98975050505050505050565b82815260006020808301845182860160005b828110156119d8578151845292840192908401906001016119bc565b5091979650505050505050565b7f4e487b7100000000000000000000000000000000000000000000000000000000600052601160045260246000fd5b80820180821115610184576101846119e5565b60006000198203611a3a57611a3a6119e5565b5060010190565b7f4e487b7100000000000000000000000000000000000000000000000000000000600052601260045260246000fd5b606081526000611a836060830186611849565b65ffffffffffff851660208401528281036040840152611aa381856118cc565b9695505050505050565b848152608060208201526000611ac66080830186611849565b65ffffffffffff851660408401528281036060840152611ae681856118cc565b979650505050505050565b608081526000611b046080830187611849565b8281036020840152611b1681876118cc565b90508460408401528281036060840152611ae681856118cc565b86815260c060208201526000611b4960c0830188611849565b8281036040840152611b5b81886118cc565b90508560608401528281036080840152611b7581866118cc565b9150508260a0830152979650505050505050565b81810381811115610184576101846119e5565b8082028115828204841417610184576101846119e5565b606081526000611bc660608301866118cc565b6020830194909452506040015291905056fea2646970667358221220c02c8380dc8e880b6760fda96f6555aff0f9185ac737699ae7bdc3dbf8189ec464736f6c63430008150033",
    "linkReferences": {}
  },
  "methodIdentifiers": {
    "_msgSender()": "119df25f",
    "_msgValue()": "45ec9354",
    "_world()": "e1af802c",
    "spawn(uint32,uint32)": "a3a8e72d",
    "supportsInterface(bytes4)": "01ffc9a7"
  },
  "id": 142
}